:200000000C947C000C94A4000C94A4000C94A4000C94A4000C94A4000C94A4000C94A400E8
:200020000C94A4000C94A4000C94A4000C94A4000C94A4000C94A4000C94A4000C94A400A0
:200040000C94D60A0C94A4000C94460B0C94200B0C94A4000C94A4000C94A4000C94A40010
:200060000C94A4000C94A4004E414E494E495459494E46CDCCCC3D0AD7233C17B7D1387781
:20008000CC2B329595E6241FB14F0A000020410000C84200401C4620BCBE4CCA1B0E5AAEEC
:2000A000C59D74000000080002010000030407000000000000000000000000250028002BD9
:2000C0000000000000240027002A000404040404040404020202020202030303030303016C
:2000E0000204081020408001020408102001020408102000780BF70F11241FBECFEFD8E073
:20010000DEBFCDBF25E0ACE8B3E001C01D92AA30B207E1F713E0A0E0B1E0E0E5FDE202C045
:2001200005900D92AC38B107D9F710E0CBE7D0E004C02197FE010E946513CA37D107C9F79F
:200140000E94BC0B0C949B160C94000090E0FC01E152FF4F249185539F4FFC01849188231F
:2001600099F090E0880F991FFC01EF53FF4FA591B491FC01E954FF4F859194918FB7F8949A
:20018000EC91E22BEC938FBF089590E0FC01ED55FF4F2491FC01E152FF4F3491FC01E55341
:2001A000FF4FE491EE23C9F0222339F0233001F1A8F4213019F1223029F1F0E0EE0FFF1FB1
:2001C000E954FF4FA591B4918FB7F894EC91611126C030953E233C938FBF08952730A9F0A2
:2001E0002830C9F0243049F7809180008F7D03C0809180008F7780938000DFCF84B58F77E3
:2002000084BDDBCF84B58F7DFBCF8091B0008F778093B000D2CF8091B0008F7DF9CF3E2BBB
:20022000DACFFC01248135816217730748F480819181009729F0860F971FFC0180810895E5
:2002400080E008950895AF92BF92CF92DF92EF92FF920F931F93CF93DF936C017B018B01F1
:20026000040F151FEB015E01AE18BF08C017D10759F06991D601ED91FC910190F081E02D7C
:20028000C6010995892B79F7C501DF91CF911F910F91FF90EF90DF90CF90BF90AF900895E8
:2002A000FC01538D448D252F30E0842F90E0821B930B541710F0CF96089501970895FC012F
:2002C000918D828D981761F0A28DAE0FBF2FB11D5D968C91928D9F5F9F73928F90E00895DC
:2002E0008FEF9FEF0895FC01918D828D981731F0828DE80FF11D858D90E008958FEF9FEF1C
:200300000895FC01918D228D892F90E0805C9F4F821B91098F739927089585E993E00E946B
:20032000810121E0892B09F420E0822F089580E090E0892B29F00E948D0181110C9400003C
:200340000895FC01A48DA80FB92FB11DA35ABF4F2C91848D90E001968F739927848FA68981
:20036000B7892C93A089B1898C91837080648C93938D848D981306C00288F389E02D808152
:200380008F7D80830895EF92FF920F931F93CF93DF93EC0181E0888F9B8D8C8D98131AC04C
:2003A000E889F989808185FF15C09FB7F894EE89FF896083E889F98980818370806480835E
:2003C0009FBF81E090E0DF91CF911F910F91FF90EF900895F62E0B8D10E00F5F1F4F0F7319
:2003E0001127E02E8C8D8E110CC00FB607FCFACFE889F989808185FFF5CFCE010E94A10153
:20040000F1CFEB8DEC0FFD2FF11DE35AFF4FF0829FB7F8940B8FEA89FB8980818062CFCF7E
:20042000CF93DF93EC01888D8823B9F0AA89BB89E889F9898C9185FD03C0808186FD0DC075
:200440000FB607FCF7CF8C9185FFF2CF808185FFEDCFCE010E94A101E9CFDF91CF91089533
:20046000CF93DF93FC012781222329F1EC0180850E94A60089850E94A6008F81843011F04F
:20048000883099F48A850E94A6008B850E94A6008FA58F3F81F00E94A6006EA581E06827AA
:2004A0008FA5DF91CF910C94C500833011F0863079F78A85EBCFDF91CF910895CF93DF93EF
:2004C000FC0127812223A1F0EC010190F081E02D0284F385E02D60E009958FA58F3F41F089
:2004E0000E94A6006EA58FA5DF91CF910C94C500DF91CF910895DC01ED91FC912285338584
:2005000047705527662777274150510961097109473051056105710560F4FA01EE56FD4F26
:200520000C9465139C029E02A002A202A402A602A80261E0F901099465E0FCCF64E0FACF32
:2005400066E0F8CF62E0F6CF6AE0F4CF68E0F2CF69E0F0CFCF93DF93EC01CB01BA0126E01B
:2005600030E040E050E00E944613623071058105910589F16CF46115710581059105D1F059
:200580006130710581059105F9F0DF91CF910895643071058105910561F124F1653071054A
:2005A0008105910591F7E881F9810284F385E02D66E006C0E881F9810284F385E02D64E06B
:2005C000CE01DF91CF910994E881F9810284F385E02D65E0F5CFE881F9810284F385E02DFA
:2005E00061E0EECFE881F9810284F385E02D63E0E7CFE881F9810284F385E02D62E0E0CF37
:20060000DC01ED91FC910284F385E02D4370552766277727423051056105710571F0433015
:2006200051056105710559F0413051056105710511F065E0099466E0FDCF6AE0FBCF69E04A
:20064000F9CFCF93DF93EC01CB01BA0123E030E040E050E00E944613613071058105910509
:2006600099F06230710581059105A9F0672B682B692BC1F4E881F9810284F385E02D64E094
:20068000CE01DF91CF910994E881F9810284F385E02D61E0F5CFE881F9810284F385E02D3D
:2006A00062E0EECFDF91CF910895DC01ED91FC910284F385E02D437055276627772742300F
:2006C00051056105710571F0433051056105710559F0413051056105710511F062E0099416
:2006E00063E0FDCF61E0FBCF60E0F9CFCF93DF93EC01E881F9810284F385E02D8A8160E0DE
:20070000811162E0CE010995E881F9810284F385E02D8A8161E0811163E0CE0109958CA5EB
:200720009DA58230910538F0880F991F880F991F05970197F1F7E881F9810284F385E02D5F
:200740008A8160E0811162E0CE01DF91CF910994CF93DF93EC0120E030E0A901688D798DC8
:200760008A8D9B8D0E94801418162CF4E8A9F9A9DF91CF910994EAA9FBA9FACFCF92DF9244
:20078000EF92FF920F931F93CF93DF93DC011796CC91C43039F0C83059F1C33019F0C630E7
:2007A00049F1C2E08C01085F1F4FF12CE12CC62ED12CD1E0F8016481C6010E2C02C0959564
:2007C00087950A94E2F780FD6D270F5F1F4F80810E94C500BFEFEB1AFB0AEC1658F3DF91BC
:2007E000CF911F910F91FF90EF90DF90CF900895C4E0D8CFC3E0D6CFDC011796EC91179788
:20080000E93008F038C0F0E0E85FFB4F0C946513110417041D04230429043B042F043B0400
:200820003504ED91FC910684F785E02D0994ED91FC910088F189E02DF9CFED91FC9102884D
:20084000F389E02DF3CFED91FC910488F589E02DEDCFED91FC910688F789E02DE7CFED9115
:20086000FC91008CF18DE02DE1CFED91FC91028CF38DE02DDBCF08954F925F926F927F92D3
:20088000AF92BF92CF92DF92EF92FF920F931F93CF93DF93EC015A018B019A01AB01688DAA
:2008A000798D8A8D9B8D0E94AC11882379F14C8C5D8C6E8C7F8C73016201F7FAF094F7F87E
:2008C000F094A7019601B501C8010E94AC1187FD0CC0A3019201B501C8010E9480147301C7
:2008E0006201181614F06501780120E030E0A901C701B6010E94AC11811117C01B821C8248
:200900001D821E82C88ED98EEA8EFB8EDF91CF911F910F91FF90EF90DF90CF90BF90AF9050
:200920007F906F905F904F900895A701960160E074E284E799E40E94D8139F770E945114D7
:200940006B837C838D839E8311E020E030E0A901C701B6010E94801418160CF010E01A8362
:20096000D1CF4F925F926F927F928F929F92AF92BF92CF92DF92EF92FF920F931F93CF9375
:20098000DF93EC01CC88DD88EE88FF8888899989AA89BB89C81AD90AEA0AFB0A688D798DDF
:2009A0008A8D9B8D9B01AC010E9412124B015C0168A179A18AA19BA19B01AC010E946C134C
:2009C0009B01AC01C501B4010E94D8130E944A14C114D104E104F10409F0B6C062307105CB
:2009E000810591050CF0D0C01B821C821D821E82188E198E1A8E1B8E1CAA1DAA1EAA1FAA19
:200A0000C12CD12C7601C701B601DF91CF911F910F91FF90EF90DF90CF90BF90AF909F903D
:200A20008F907F906F905F904F9008951016110612061306B4F46C157D058E059F051CF4BE
:200A40002A812111A1C09B01AC0188279927DC01821B930BA40BB50B8CAB9DABAEABBFABD7
:200A600093C0011511052105310509F48DC06C157D058E059F050CF087C08A81882309F421
:200A800083C030952095109501951F4F2F4F3F4F0CAB1DAB2EAB3FAB77C001151105210519
:200AA000310509F471C08824992454018C189D08AE08BF08681579058A059B050CF064C004
:200AC0008A81811161C0DDCFCCACDDACEEACFFACA7019601C701B6010E946C132B013C011E
:200AE000C501B4010E94B31120E030E040E850E40E94121220E030E040E85FE30E946C1348
:200B00009B01AC01C301B2010E94D8139B01AC01C701B6010E946B133B016C01FE01E05CBC
:200B2000FF4FE080F180028113819701A8010E948014181614F473018601C701D8018CAFFB
:200B40009DAFAEAFBFAF3AC00CA91DA92EA93FA91C141D041E041F040CF468CF1016110640
:200B6000120613060CF099CF0027112798010C191D092E093F0960177107820793070CF010
:200B800062CF2A8121115FCF8CA89DA8AEA8BFA881149104A104B10409F096CF88AD99AD86
:200BA000AAADBBAD8CAF9DAFAEAFBFAF81E01C141D041E041F040CF080E08A833FEF831AF9
:200BC000930AA30AB30A8CAA9DAAAEAABFAA8CAC9DACAEACBFACC501B4010E9451146B019C
:200BE0007C01CB82DC82ED82FE82A501940160E074E284E799E40E94D813688F798F8A8F80
:200C00009B8F2A812111FFCE9058688F798F8A8F9B8FF9CECF92DF92EF92FF920F931F93D7
:200C2000CF93DF93EC016A017B0120E030E0A901CB01B6010E94AC1187FF04C0F7FAF094B1
:200C4000F7F8F094A70196016C8D7D8D8E8D9F8D0E94AC11882309F446C0CC8EDD8EEE8E4A
:200C6000FF8E8E01005C1F4FA701960160E074E284E799E40E94D813F8016083718382836F
:200C800093838CA99DA9AEA9BFA9181619061A061B064CF5688D798D8A8D9B8D9B01AC01B2
:200CA0000E9412126B017C0168A179A18AA19BA19B01AC010E946C139B01AC01C701B601C9
:200CC0000E94D8130E944A146CAB7DAB8EAB9FABCE01DF91CF911F910F91FF90EF90DF9059
:200CE000CF900C94B104DF91CF911F910F91FF90EF90DF90CF900895CF92DF92EF92FF92C3
:200D0000CF93DF93EC018B819C81AD81BE81892B8A2B8B2B41F480E0DF91CF91FF90EF90EA
:200D2000DF90CF9008953FB7F89480918C0390918D03A0918E03B0918F0326B5A89B05C0FD
:200D40002F3F19F00196A11DB11D3FBFBA2FA92F982F88276C017D01C20ED11CE11CF11C12
:200D600042E0CC0CDD1CEE1CFF1C4A95D1F788A599A5AAA5BBA5B701A601481B590B6A0BFF
:200D80007B0B8B819C81AD81BE81481759076A077B0708F4C0CF88899989AA89BB892A81A5
:200DA0002223A1F00196A11DB11D888B998BAA8BBB8B488959896A897B89CE010E94FC036E
:200DC000C8A6D9A6EAA6FBA681E0A6CF0197A109B109EBCF0F931F93DC0154960D911D9102
:200DE0002D913C915797041715072607370771F0FC01448B558B668B778B0190F081E02DC9
:200E00000084F185E02D1F910F9109941F910F91089508958F929F92AF92BF92CF92DF929E
:200E2000EF92FF92CF93DF93EC018EE091E09983888381E08F83188A198A1A8A1B8A1C8A32
:200E40001D8A1E8A1F8A188E198E1A8E1B8E1C8E1D8E1E8E1F8E18A219A21AA21BA2C12C73
:200E6000D12C80E8E82E8FE3F82ECCA2DDA2EEA2FFA21B821C821D821E8281E090E09DA7B2
:200E80008CA78FEF8FA718A619A61AA61BA66887498784E08A8785E08B871EA61CAA1DAA71
:200EA0001EAA1FAA18AE19AE1AAE1BAE1CAE1DAE1EAE1FAEFE01E05CFF4FC082D182E282D3
:200EC000F3821A821C861D861E861F86CE010E94300288A099A0AAA0BBA0A7019601C501C5
:200EE000B4010E94AC118823F9F06CA97DA98EA99FA90E94B311A50194010E9412120E9487
:200F00004A146CAB7DAB8EAB9FAB86E896E6A9E6B9E488AF99AFAAAFBBAFC8A2D9A2EAA2E8
:200F2000FBA2CE010E94B10440E050E060E87FE3CE01DF91CF91FF90EF90DF90CF90BF902A
:200F4000AF909F908F900C940A06FC0101900020E9F73197AF01481B590BBC0185E993E0E9
:200F60000C9423018F929F92AF92BF920F931F93CF93DF93CDB7DEB7A1970FB6F894DEBF62
:200F80000FBECDBF19A2423008F44AE08E010F5D1F4F842E912CB12CA12CA50194010E9446
:200FA0002413E62FB901CA01EA30F4F4E05DD801EE938D01232B242B252B79F790E080E00C
:200FC000109719F0CD010E94A507A1960FB6F894DEBF0FBECDBFDF91CF911F910F91BF9058
:200FE000AF909F908F900895E95CE1CFCF92DF92EF92FF92CF93DF9397FF1BC06B017C01C0
:201000006DE285E993E00E94C301EC0166277727CB016C197D098E099F094AE00E94B20787
:201020008C0F9D1FDF91CF91FF90EF90DF90CF9008954AE0DF91CF91FF90EF90DF90CF903A
:201040000C94B2074F925F926F927F928F929F92AF92BF92CF92DF92EF92FF920F931F9337
:20106000CF936B017C01742EAC019B010E948514882399F08CE391E0CF911F910F91FF90AC
:20108000EF90DF90CF90BF90AF909F908F907F906F905F904F900C94A50746015701E894E4
:2010A000B7F82FEF3FEF4FE75FE7C501B4010E94851481110DC02FEF3FEF4FE75FE7C50116
:2010C000B4010E94AC1118161CF480E491E0D4CF2FEF3FEF4FE75FE4C701B6010E948014CC
:2010E00018161CF484E491E0C7CF2FEF3FEF4FE75FECC701B6010E94AC1187FDF3CF20E052
:2011000030E0A901C701B6010E94AC1110E000E087FF0AC06DE285E993E00E94C3018C01F4
:20112000F7FAF094F7F8F094C0E060E070E080E09FE37C1641F020E030E040E251E40E94E9
:20114000D813CF5FF6CFA70196010E946C132B013C010E9451144B015C014AE00E94B207B3
:201160007C01E00EF11ECC23C1F1C501B4010E94B1119B01AC01C301B2010E946B134B0149
:201180005C016EE285E993E00E94C301E80EF91EC15018F120E030E040E251E4C501B40152
:2011A0000E9412122B013C010E9451144B01B12CA12C4AE0C501B4010E94B207E80EF91EF6
:2011C000C501B4010E94B1119B01AC01C301B2010E946B134B015C01DBCFC701CF911F9125
:2011E0000F91FF90EF90DF90CF90BF90AF909F908F907F906F905F904F900895CF93DF934A
:201200000E94A507EC0188E491E00E94A5078C0F9D1FDF91CF910895CF92DF92EF92FF92C0
:201220006B017C01C0920001D0920101E0920201F09203014091D4045091D5046091D604E5
:201240007091D7048091D0049091D104A091D204B091D304481759076A077B07A9F020E06D
:2012600030E0A9016091D8047091D9048091DA049091DB040E948014B701A60187FD705839
:2012800080EC94E00E943C044091900450919104609192047091930480918C0490918D043F
:2012A000A0918E04B0918F04481759076A077B07A9F020E030E0A90160919404709195046F
:2012C00080919604909197040E948014B701A60187FD70588CE794E00E943C0440914C04DC
:2012E00050914D0460914E0470914F048091480490914904A0914A04B0914B04481759078C
:201300006A077B07C9F020E030E0A901609150047091510480915204909153040E948014B7
:2013200087FF04C0F7FAF094F7F8F094B701A60188E394E00E943C048BE491E00E94A5072D
:201340006091000170910101809102019091030142E00E94220884E791E0FF90EF90DF9018
:20136000CF900C94FE080F931F93CF93DF938C01EB01FC01808191810097E1F0688179816C
:2013800061157105A9F0428153812C813D814217530770F00E9486168C819D81F801958339
:2013A00084831D821C82DF91CF911F910F9108950E94261588819981F801918380838A8111
:2013C0009B81938382838C819D8195838483198218821B821A82E5CFFC01808191810097C3
:2013E00011F00C94261508950C942615FB0144815581FC01248135812417350778F08081CA
:201400009181009759F0FB01608171816115710529F00E948D1621E0892B09F020E0822F62
:2014200008950F931F93CF93DF93EC0188819981009759F02A813B812617370730F081E094
:20144000DF91CF911F910F9108958B016F5F7F4F0E94AF15009759F0998388831B830A830F
:201460002C813D81232B59F7FC011082E8CF80E0E7CFEF92FF920F931F93CF93DF93EC01E0
:201480007B018A01BA010E94110A28813981811114C02115310519F0C9010E94261519824D
:2014A00018821D821C821B821A82CE01DF91CF911F910F91FF90EF9008951D830C83B7019B
:2014C000C9010E948616F1CFFB0101900020E9F73197AF01461B570B0C94390AFC01118209
:2014E00010821382128215821482FB0101900020E9F73197AF01461B570B0C94390AAF9218
:20150000BF92CF92DF92EF92FF920F931F93CF93DF93EC015B016A0179012417350720F4B5
:201520008D2D6901E42EF82E6AE471E0CE010E946E0AD50114960D911C91C016D106E8F473
:20154000E016F10608F48701D501ED91FC911197E00FF11FF08010826D917C916C0D7D1D72
:2015600061157105B1F0CE010E94640AF50180819181080F191FD801FC92CE01DF91CF91A1
:201580001F910F91FF90EF90DF90CF90BF90AF90089588819981009711F00E9426151982C1
:2015A00018821D821C821B821A82E0CF1F920F920FB60F9211242F933F938F939F93AF9355
:2015C000BF938091910390919203A0919303B09194033091900323E0230F2D3758F50196EE
:2015E000A11DB11D209390038093910390939203A0939303B093940380918C0390918D03C6
:20160000A0918E03B0918F030196A11DB11D80938C0390938D03A0938E03B0938F03BF91D4
:20162000AF919F918F913F912F910F900FBE0F901F90189526E8230F0296A11DB11DD2CF1E
:201640001F920F920FB60F9211242F933F934F935F936F937F938F939F93AF93BF93EF93B7
:20166000FF9385E993E00E94A101FF91EF91BF91AF919F918F917F916F915F914F913F9113
:201680002F910F900FBE0F901F9018951F920F920FB60F9211242F938F939F93EF93FF930C
:2016A000E091A503F091A6038081E091AB03F091AC0382FD1BC090818091AE038F5F8F737A
:2016C0002091AF03821741F0E091AE03F0E0EB56FC4F958F8093AE03FF91EF919F918F9117
:2016E0002F910F900FBE0F901F9018958081F4CFE5E9F3E01382128288EE93E0A0E0B0E03C
:2017000084839583A683B7838EE291E09183808385EC90E09587848784EC90E0978786873C
:2017200080EC90E0918B808B81EC90E0938B828B82EC90E0958B848B86EC90E0978B868B7C
:20174000118E128E138E148E45E062E080EC94E00E940A0747E064E08CE794E00E940A0708
:2017600046E063E088E394E00E940A076AE471E082E394E00C946E0ACF93DF93CDB7DEB7F1
:2017800068970FB6F894DEBF0FBECDBF789484B5826084BD84B5816084BD85B5826085BDE2
:2017A00085B5816085BD80916E00816080936E0010928100809181008260809381008091AF
:2017C0008100816080938100809180008160809380008091B10084608093B1008091B000E3
:2017E00081608093B00080917A00846080937A0080917A00826080937A0080917A008160E3
:2018000080937A0080917A00806880937A001092C100E091A503F091A60382E08083E091BF
:20182000A103F091A2031082E091A303F091A40380E180831092AD03E091A903F091AA030C
:2018400086E08083E091A703F091A803808180618083E091A703F091A803808188608083C0
:20186000E091A703F091A803808180688083E091A703F091A80380818F7D808360E470E04A
:2018800082E394E00E94110A88E00E94A60060E088E00E94C50040E050E46CE176E480EC8C
:2018A00094E00E940A0640E050E46CE176E48CE794E00E940A0640E050E46CE176E488E308
:2018C00094E00E940A068FE791E00E94FE0881EB91E00E94FE088FE791E00E94FE0883EECE
:2018E00091E00E94FE0885E192E00E94FE0887E492E00E94FE0889E792E00E94FE088BEACB
:2019000092E00E94FE088FE791E00E94FE0885E993E00E94810118161906CCF485E993E02B
:201920000E945F018B3109F06AC085E993E00E948101181619062CF485E993E00E945F0171
:20194000F4CF6AE471E082E394E00E94640A4091D4045091D5046091D6047091D704809121
:20196000D0049091D104A091D204B091D304481759076A077B0721F080EC94E00E947C06B7
:201980004091900450919104609192047091930480918C0490918D04A0918E04B0918F0463
:2019A000481759076A077B0721F08CE794E00E947C0640914C0450914D0460914E047091C2
:2019C0004F048091480490914904A0914A04B0914B04481759076A077B0721F088E394E038
:2019E0000E947C0680E090E0892B09F490CF0E948D01882309F48BCF0E94000088CF8A30FE
:201A000019F08D3009F0CAC240913604509137044115510509F47BCF1C8A1B8A1E8A1D8AC7
:201A2000188E1F8A60913204709133046115710521F0CE0143960E94390ACB88DC88C114E2
:201A4000D10431F00F89188D760101151105B1F40B891C890115110509F446C0F801819198
:201A60008F01882309F440C0082E000C990B0E946C16F80131978083F1CF750157018FEF54
:201A8000A81AB80AF7018081082E000C990B0E948B11892B91F7015011090C0D1D1DF801B2
:201AA0008081082E000C990B0E948B11892B31F00E151F0518F001501109F1CFA8014F5F5B
:201AC0005F4F4E195F09588F4F8BCE14DF0420F4B701C6010E947416EB89FC898F89988D0E
:201AE000E80FF91F1082B4CF8F89988D892B89F10B891C896DED72E0C8010E947D16892BC0
:201B000099F54091D0045091D1046091D2047091D30480EC94E00E94EA0640918C04509189
:201B20008D0460918E0470918F048CE794E00E94EA06409148045091490460914A047091F9
:201B40004B0488E394E00E94EA0682EE92E00E94FE08CE0143960E94EC096AE471E082E3F8
:201B600094E00E94640AD3CE6FEF72E0C8010E947D1610E000E0892B09F03EC183E093E040
:201B80000E94A5076091D0047091D1048091D2049091D3040E94F60780E193E00E94A507BC
:201BA00060918C0470918D0480918E0490918F040E94F60787E193E00E94A50760914804B6
:201BC0007091490480914A0490914B040E94F60788E491E00E94A507BCCF0F5F1F4F0E1594
:201BE0001F0538F4B801CE0143960E9411018032A1F798014D2D5C2DBE016D5E7F4FCE0173
:201C00000D960E947F0A6EE173E0CE0107960E946E0ABE01695F7F4FCE010D960E94F60966
:201C2000FF24F394811116C062E273E0CE0101960E946E0ABE016F5F7F4FCE010D960E940C
:201C4000F609FF24F394811101C0F12CCE0101960E94EC09CE0107960E94EC09FF2009F44F
:201C600063C062E273E0CE0101960E946E0ABE016F5F7F4FCE010D960E94F60929893A8947
:201C800045E050E0811102C043E050E0BE01635F7F4FCE0107960E947F0ACE0101960E945A
:201CA000EC098B859C85892BA9F5EF88F88C0E151F0580F5D02EC12E0E151F05B0F4B80164
:201CC000CE0143960E941101803229F40F5F1F4FF1CF0F5F1F4F0E151F0538F4B801CE0166
:201CE00043960E9411018032A1F798014D2D5C2DBE016D5E7F4FCE0101960E947F0ABE01C9
:201D00006F5F7F4FCE0107960E94B309CE0101960E94EC098F819885009709F055C088E224
:201D200093E00E94FE0860C070E060E0CE010D960E941101833509F076C06DED72E0CE0150
:201D400001960E946E0ABE016F5F7F4FCE010D960E94F609F82ECE0101960E94EC09F11040
:201D600062C029893A8941E050E0BE01635F7F4FCE0107960E947F0A8B859C85892B51F669
:201D8000EF88F88C0E151F0528F6D02EC12E0E151F0508F0AACFB801CE0143960E94110129
:201DA000803219F40F5F1F4FF0CF0E151F0508F09CCFB801CE0143960E941101803209F45B
:201DC00094CF0F5F1F4FF1CF0E94FB0F6B017C0120E030E0A9010E94AC1118160CF09FCFBE
:201DE000C701B6010E940C09CE0107960E94EC09CE010D960E94EC09EF88F88C0E151F055F
:201E000008F0A7CED02EC12E0E151F0509F4A1CEB801CE0143960E941101803209F0DFCE48
:201E20000F5F1F4FEFCF70E060E0CE010D960E941101D82E88EA8D0D8330D0F629893A8952
:201E400041E050E0BE01635F7F4FCE0107960E947F0A8B859C85892BA9F5EF88F88C0E15AA
:201E60001F0580F5C02EB12E0E151F05B0F4B801CE0143960E941101803229F40F5F1F4F51
:201E8000F1CF0F5F1F4F0E151F0538F4B801CE0143960E9411018032A1F798014C2D5B2D3A
:201EA000BE016D5E7F4FCE0101960E947F0ABE016F5F7F4FCE0107960E94B309CE010196AE
:201EC0000E94EC098F819885009709F48DCF0E94FF0F4B015C0181149104A104B10409F474
:201EE00083CFF8E590ECE92E94E0F92EDF1659F089E52CE7E22E24E0F22ED81621F088E328
:201F0000E82E84E0F82EF7014089518962897389480D591D6A1D7B1DC7010E94EA0640918A
:201F20000001509101016091020170910301181419041A041B040CF07058C7010E943C04D0
:201F400081E593E00E94A5076D2D85E993E00E94C30186E593E00E94A507C501B4010E9430
:201F6000F60785E693E00E94A507F70164897589868997890E94F60787E793E00E94A50758
:201F80006091000170910101809102019091030142E00E94220882E893E0C3CE90EE980F92
:201FA0009F3508F0B4CC89831A8200913604109137040F5F1F4FB80182E394E00E94110A5B
:201FC000882309F4A4CC20913204309133048091360490913704BE016F5F7F4F820F931FC5
:201FE0000E948616109337040093360490CC82E394E00C94EC09662777270C943B101F9366
:20200000FC0199278827BC01E89411911032E9F3193010F01E30C8F31B3251F01D3249F4EF
:20202000689406C00E942610610F711D811D911D119110531A30B0F33EF490958095709559
:2020400061957F4F8F4F9F4F1F910895592F482F372F262F660F771F881F991F660F771F74
:20206000881F991F620F731F841F951F660F771F881F991F0895B0E0A0E0E1E4F0E10C945A
:20208000E4125C017B016115710519F0DB018D939C9385010F5F1F4FF501D0818D2F90E07C
:2020A0000E948B116C01892BB9F5DD32B9F50F5F1F4FD5011196DC91C1E05801F1E0AF1AFC
:2020C000B10843E050E060E770E0C5010E949411892B69F5680182E0C80ED11C45E050E05B
:2020E0006BE670E0C6010E949411892B21F4680197E0C90ED11CE114F10419F0D701CD929A
:20210000DC9260E070E080E89FEFC111FFC060E070E080E89FE7FAC05801BBCFDB3229F4F5
:2021200085010E5F1F4FF501D181C0E0C6CF43E050E068E670E0C5010E949411892BE9F036
:20214000F80110E000E020E030E0A9015F01B0ED8B2E8D0E89E08815C8F19C2E689491F89D
:202160008C2F8870C2FF16C0811102C00F5F1F4F3196D501DC91C92DE9CFE114F10429F02A
:202180000E5F1F4FF7011183008360E070E080EC9FE7BCC0882311F001501109A5E0B0E02B
:2021A0000E94D3129B01AC01220F331F441F551F280D311D411D511D283999E93907490733
:2021C00099E15907A8F2C6609C2ED2CFAEEF8A1206C0C3FD3CC09C2E689493F8C9CFDF7DFA
:2021E000D534A9F580818D3239F4C061DF011296818162E070E006C0DF018B32C1F3119650
:2022000061E070E080535D01A61AB70A8A30F8F4E0E8CE16ECE0DE065CF4B601660F771F67
:20222000660F771FC60ED71ECC0CDD1CC80ED11C5D01FFEFAF1ABF0A8C9180538A30A8F115
:20224000C4FF03C0D194C194D1080C0D1D1DC1FF09C0E114F10431F081E0A81AB108D701CA
:20226000AD92BC92CA01B9010E94B111C370C33009F490584B015C0120E030E0A9010E94D8
:20228000AC11882309F440C0CFE9D0E017FF05C0119501951109C7E8D0E06E01B8E1CB1AF4
:2022A000D10880E2E82EF12C0FC0D501B1CFFE0125913591459154910E191F09C501B4018B
:2022C0000E9412124B015C01D501C4010E151F0574F72497F594E794CC16DD06A9F78A2F65
:2022E000880F8B2F881F8F3F49F020E030E0A901C501B4010E94AC11811106C082E290E01F
:202300009093050580930405C501B401CDB7DEB7ECE00C94001391110C947F12803219F0D3
:2023200089508550C8F70895FB01DC014150504088F08D9181341CF08B350CF4805E6591AE
:2023400061341CF06B350CF4605E861B611171F3990B0895881BFCCF0E94EE1108F481E05A
:202360000895E89409C097FB3EF490958095709561957F4F8F4F9F4F9923A9F0F92F96E9EC
:20238000BB279395F695879577956795B795F111F8CFFAF4BB0F11F460FF1BC06F5F7F4FDC
:2023A0008F4F9F4F16C0882311F096E911C0772321F09EE8872F762F05C0662371F096E8C6
:2023C000862F70E060E02AF09A95660F771F881FDAF7880F9695879597F90895990F000831
:2023E000550FAA0BE0E8FEEF16161706E807F907C0F012161306E407F50798F0621B730B7C
:20240000840B950B39F40A2661F0232B242B252B21F408950A2609F4A140A6958FEF811DDB
:20242000811D08950E9425120C9499120E948B1238F00E94921220F0952311F00C94821293
:202440000C94881211240C94CD120E94AA1270F3959FC1F3950F50E0551F629FF001729F9A
:20246000BB27F00DB11D639FAA27F00DB11DAA1F649F6627B00DA11D661F829F2227B00D91
:20248000A11D621F739FB00DA11D621F839FA00D611D221F749F3327A00D611D231F849F64
:2024A000600D211D822F762F6A2F11249F5750409AF0F1F088234AF0EE0FFF1FBB1F661FFD
:2024C000771F881F91505040A9F79E3F510580F00C9482120C94CD125F3FE4F3983ED4F346
:2024E000869577956795B795F795E7959F5FC1F7FE2B880F911D9695879597F9089599270D
:202500008827089597F99F6780E870E060E008959FEF80EC089500240A9416161706180684
:202520000906089500240A9412161306140605060895092E0394000C11F4882352F0BB0F94
:2025400040F4BF2B11F460FF04C06F5F7F4F8F4F9F4F089557FD9058440F551F59F05F3F46
:2025600071F04795880F97FB991F61F09F3F79F087950895121613061406551FF2CF469581
:20258000F1DF08C0161617061806991FF1CF86957105610508940895E894BB27662777270B
:2025A000CB0197F908950E941513A59F900DB49F900DA49F800D911D112408952F923F92A5
:2025C0004F925F926F927F928F929F92AF92BF92CF92DF92EF92FF920F931F93CF93DF9327
:2025E000CDB7DEB7CA1BDB0B0FB6F894DEBF0FBECDBF09942A88398848885F846E847D84FA
:202600008C849B84AA84B984C884DF80EE80FD800C811B81AA81B981CE0FD11D0FB6F894E0
:20262000DEBF0FBECDBFED010895A29FB001B39FC001A39F700D811D1124911DB29F700D06
:20264000811D1124911D0895A1E21A2EAA1BBB1BFD010DC0AA1FBB1FEE1FFF1FA217B307EA
:20266000E407F50720F0A21BB30BE40BF50B661F771F881F991F1A9469F760957095809562
:2026800090959B01AC01BD01CF010895052E97FB1EF400940E945D1357FD07D00E94241320
:2026A00007FC03D04EF40C945D1350954095309521953F4F4F4F5F4F089590958095709507
:2026C00061957F4F8F4F9F4F0895EE0FFF1F0590F491E02D09945058BB27AA270E9483135B
:2026E0000C9499120E948B1238F00E94921220F039F49F3F19F426F40C9488120EF4E095EF
:20270000E7FB0C948212E92F0E94AA1258F3BA17620773078407950720F079F4A6F50C944F
:20272000CC120EF4E0950B2EBA2FA02D0B01B90190010C01CA01A0011124FF27591B99F02D
:20274000593F50F4503E68F11A16F040A22F232F342F4427585FF3CF469537952795A7954D
:20276000F0405395C9F77EF41F16BA0B620B730B840BBAF09150A1F0FF0FBB1F661F771F7C
:20278000881FC2F70EC0BA0F621F731F841F48F4879577956795B795F7959E3F08F0B0CF00
:2027A0009395880F08F09927EE0F9795879508950E94EC130C9499120E94921258F00E94A4
:2027C0008B1240F029F45F3F29F00C94821251110C94CD120C9488120E94AA1268F3992394
:2027E000B1F3552391F3951B550BBB27AA2762177307840738F09F5F5F4F220F331F441F3E
:20280000AA1FA9F335D00E2E3AF0E0E832D091505040E695001CCAF72BD0FE2F29D0660FBF
:20282000771F881FBB1F261737074807AB07B0E809F0BB0B802DBF01FF2793585F4F3AF058
:202840009E3F510578F00C9482120C94CD125F3FE4F3983ED4F3869577956795B795F7951D
:202860009F5FC9F7880F911D9695879597F90895E1E0660F771F881FBB1F62177307840716
:20288000BA0720F0621B730B840BBA0BEE1F88F7E09508950E9451146894B1110C94CD1236
:2028A00008950E94B21288F09F5798F0B92F9927B751B0F0E1F0660F771F881F991F1AF08A
:2028C000BA95C9F714C0B13091F00E94CC12B1E008950C94CC12672F782F8827B85F39F05B
:2028E000B93FCCF3869577956795B395D9F73EF490958095709561957F4F8F4F9F4F089548
:202900000E94EE1108F48FEF08950E94EE11880B990B08950F931F93CF93DF93823091051A
:2029200010F482E090E0E0910805F091090530E020E0B0E0A0E0309799F42115310509F4D7
:202940004AC0281B390B24303105D8F58A819B816115710589F1FB0193838283FE0111C01B
:20296000408151810281138148175907E0F04817590799F4109761F012960C931297139641
:202980001C933296CF01DF91CF911F910F9108950093080510930905F4CF2115310551F072
:2029A0004217530738F0A901DB019A01BD01DF01F801C1CFEF01F9CF9093090580930805EB
:2029C000CDCFFE01E20FF31F819391932250310939832883D7CF2091060530910705232B91
:2029E00041F42091060130910701309307052093060520910401309105012115310541F476
:202A00002DB73EB74091080150910901241B350BE0910605F0910705E217F307A0F42E1BC0
:202A20003F0B2817390778F0AC014E5F5F4F2417350748F04E0F5F1F509307054093060506
:202A4000819391939FCFF0E0E0E09CCFCF93DF930097E9F0FC01329713821282A091080564
:202A6000B0910905ED0130E020E01097A1F420813181820F931F209106053091070528176F
:202A8000390709F061C0F0930705E0930605DF91CF910895EA01CE17DF07E8F54A815B8128
:202AA0009E0141155105B1F7E901FB83EA8349915991C40FD51FEC17FD0761F48081918154
:202AC0000296840F951FE90199838883828193819B838A83F0E0E0E012968D919C91139797
:202AE0000097B9F52D913C911197CD010296820F931F20910605309107052817390739F67E
:202B0000309751F51092090510920805B0930705A0930605BCCFD383C28340815181840F70
:202B2000951FC817D90761F44E5F5F4F88819981480F591F518340838A819B8193838283A7
:202B40002115310509F0B0CFF0930905E09308059ECFFD01DC01C0CF13821282D7CFB0E04A
:202B6000A0E0E5EBF5E10C94E0128C01009751F4CB010E948A148C01C801CDB7DEB7E0E1F8
:202B80000C94FC12FC01E60FF71F9C0122503109E217F30708F49DC0D901CD91DC9111979D
:202BA000C617D70798F0C530D10530F3CE0104978617970708F3C61BD70B2297C193D19310
:202BC0006D937C93CF010E942615D6CF5B01AC1ABD0A4C018C0E9D1EA0910805B09109057C
:202BE000512C412CF12CE12C109731F580910605909107058815990509F05CC046165706A2
:202C000008F058C08091040190910501009741F48DB79EB74091080150910901841B950BFE
:202C2000E817F90708F055C0F0930705E0930605F90171836083A0CF8D919C9111971296A0
:202C40006C90129713967C901397A815B90559F56C0142E0C40ED11CCA14DB0420F1AC01DE
:202C60004A195B09DA011296159780F06282738251834083D9016D937C93E114F10471F04A
:202C8000D7011396FC93EE93129776CF22968C0F9D1FF90191838083F301EFCFF093090552
:202CA000E093080569CF4816590608F42C017D01D3019ACFCB010E948A147C01009749F062
:202CC000AE01B8010E947416C8010E942615870153CF10E000E050CF9111089581568A5130
:202CE00008F4805285580895FB01DC0102C001900D9241505040D8F70895FB01DC018D913D
:202D0000019080190110D9F3990B0895FB01DC0101900D920020E1F70895FB01DC01415063
:202D2000504030F08D910190801919F40020B9F7881B990B089510E0CBE7D0E004C0FE01C5
:202D40000E9465132196CC37D107C9F7F894FFCF0000484200000A058000000000005E0234
:202D600030020907F409B104BE03FC03A8037603550321030003AA027B0200000000C3010F
:202D800023015001100281015F0173016E616E00696E66006F7666000D0A003E3E205B5330
:202DA00050454544205345545D204163746976652073706565642075706461746564207444
:202DC0006F3A20002073746570732F736563003D3D3D3D3D3D3D3D3D3D3D3D3D3D3D3D3D64
:202DE0003D3D3D3D3D3D3D3D3D3D3D3D3D3D3D3D3D3D3D3D3D3D3D3D3D3D3D3D3D3D3D3D33
:202E000000205661726961626C6520537065656420436F6E74726F6C6C6572204163746976
:202E20007665202020202020202020202020202020200020436F6D6D616E64204578616D2D
:202E4000706C65733A20202020202020202020202020202020202020202020202020202024
:202E600020202020002020205320313020202020202020202D3E20536574207370656564B6
:202E800020746F2031302073746570732F73656320202020202000202020532032303020B0
:202EA0002020202020202D3E2053657420737065656420746F203230302073746570732F37
:202EC0007365632020202020002020205820353030202020202020202D3E204D6F76652088
:202EE00058202B3530302073746570732020202020202020202020202020002020205320B8
:202F0000313520582031303030202D3E2053657420737065656420746F20313520414E446E
:202F2000206D6F7665205831303030200053544F50003E3E205B53544F505D20416C6C2028
:202F40006D6F74696F6E2068616C7465642E00504F53003E3E205B504F535D20583A200011
:202F6000207C20593A2000207C205A3A2000535044005350454544003E3E205B4552524FEB
:202F8000525D205370656564206D7573742062652067726561746572207468616E20302E4E
:202FA000003E3E205B002D415849535D204D6F76696E672000207374657073207C205461EB
:202FC000726765743A2000207C2053706565643A20002073746570732F7300005D20583ADE
:202FE0002000207C20593A2000207C205A3A2000535044005350454544003E3E205B4552EC
:20300000524F525D205370656564206D7573742062652067726561746572207468616E208A
:20302000302E003E3E205B002D415849535D204D6F76696E672000207374657073207C20C1
:203040005461726765743A2000207C2053706565643A20002073746570732F730000FFFFB9
:20306000FFFFFFFFFFFFFFFFFFFFFFFFFFFFFFFFFFFFFFFFFFFFFFFFFFFFFFFFFFFFFFFF70
:20308000FFFFFFFFFFFFFFFFFFFFFFFFFFFFFFFFFFFFFFFFFFFFFFFFFFFFFFFFFFFFFFFF50
:2030A000FFFFFFFFFFFFFFFFFFFFFFFFFFFFFFFFFFFFFFFFFFFFFFFFFFFFFFFFFFFFFFFF30
:2030C000FFFFFFFFFFFFFFFFFFFFFFFFFFFFFFFFFFFFFFFFFFFFFFFFFFFFFFFFFFFFFFFF10
:207E0000112484B714BE81FFF0D085E08093810082E08093C00088E18093C10086E08093FC
:207E2000C20080E18093C4008EE0C9D0259A86E020E33CEF91E0309385002093840096BBAD
:207E4000B09BFECF1D9AA8958150A9F7CC24DD2488248394B5E0AB2EA1E19A2EF3E0BF2E79
:207E6000A2D0813461F49FD0082FAFD0023811F0013811F484E001C083E08DD089C0823404
:207E800011F484E103C0853419F485E0A6D080C0853579F488D0E82EFF2485D0082F10E0A0
:207EA000102F00270E291F29000F111F8ED068016FC0863521F484E090D080E0DECF84364D
:207EC00009F040C070D06FD0082F6DD080E0C81680E7D80618F4F601B7BEE895C0E0D1E0ED
:207EE00062D089930C17E1F7F0E0CF16F0E7DF0618F0F601B7BEE89568D007B600FCFDCF1A
:207F0000A601A0E0B1E02C9130E011968C91119790E0982F8827822B932B1296FA010C016F
:207F200087BEE89511244E5F5F4FF1E0A038BF0751F7F601A7BEE89507B600FCFDCF97BE85
:207F4000E89526C08437B1F42ED02DD0F82E2BD03CD0F601EF2C8F010F5F1F4F84911BD0B8
:207F6000EA94F801C1F70894C11CD11CFA94CF0CD11C0EC0853739F428D08EE10CD085E9AE
:207F80000AD08FE07ACF813511F488E018D01DD080E101D065CF982F8091C00085FFFCCF0A
:207FA0009093C60008958091C00087FFFCCF8091C00084FD01C0A8958091C6000895E0E68F
:207FC000F0E098E1908380830895EDDF803219F088E0F5DFFFCF84E1DECF1F93182FE3DF47
:207FE0001150E9F7F2DF1F91089580E0E8DFEE27FF270994FFFFFFFFFFFFFFFFFFFF040425
:00000001FF
